:020000040800F2
:100000000050002059120008F3030008F50300080F
:10001000F7030008F9030008FB03000800000000D4
:10002000000000000000000000000000FD030008C8
:10003000FF0300080000000001040008030400089A
:10004000A1120008A1120008A1120008A1120008C4
:10005000A1120008A1120008A1120008A1120008B4
:10006000A1120008A1120008A1120008A1120008A4
:10007000A1120008A1120008A1120008A112000894
:10008000A1120008A1120008A1120008A112000884
:10009000A1120008A1120008A1120008A112000874
:1000A000A1120008A1120008A1120008A112000864
:1000B000A1120008A1120008A1120008A112000854
:1000C000A1120008A1120008A1120008A112000844
:1000D000A1120008A1120008A1120008A112000834
:1000E000A1120008A1120008A112000800000000DF
:1000F0000000000000000000000000000000000000
:0C01000000000000000000005FF808F1A3
:10010C000348044B834202D0034B03B1184770479A
:10011C000C0000200C0000200000000005480649DF
:10012C000B1AD90F01EBA301491002D0034B03B1F9
:10013C00184770470C0000200C0000200000000045
:10014C0010B5064C237843B9FFF7DAFF044B13B113
:10015C000448AFF300800123237010BD0C00002075
:10016C0000000000A412000808B5044B1BB10449A0
:10017C000448AFF30080BDE80840CFE70000000062
:10018C0010000020A412000870B50D4E0D4D761B0A
:10019C00B61006D0002455F8043B01349847A6420B
:1001AC00F9D1094E094D01F077F8761BB61006D03F
:1001BC00002455F8043B01349847A642F9D170BD90
:1001CC00E8120008E8120008EC120008E812000817
:1001DC00830730B548D0541E002A3FD00346CAB21C
:1001EC0001E0013C3AD303F8012B9D07F9D1032C14
:1001FC002DD9CDB245EA05250F2C45EA054536D952
:10020C00A4F1100222F00F0C03F1200EE6444FEA89
:10021C00121C03F1100242E9045542E90255103256
:10022C007245F8D10CF1010214F00C0F03EB021221
:10023C0004F00F0C13D0ACF1040323F003030433CC
:10024C00134442F8045B9342FBD10CF003042CB131
:10025C00CAB21C4403F8012B9C42FBD130BD64464E
:10026C001346002CF4D1F9E703461446BFE71A46AF
:10027C00A446E0E730B587B00024029403940494BC
:10028C000594134B9A6942F020029A619A6902F024
:10029C0020020092009A9A6942F004029A619B69CA
:1002AC0003F004030193019B0A4D2246E0212846EA
:1002BC0000F0ECFEE0230293012303930494022349
:1002CC00059302A9284600F0CFFD07B030BD00BF52
:1002DC00001002400008014072B6FEE700B587B07E
:1002EC000023029303930493059300930193134803
:1002FC00134A0260436083604FF6FF72C260036171
:10030C00836100F059F990B94FF48053029302A91C
:10031C000A4800F089F960B90023009301936946FB
:10032C00064800F0EFF930B907B05DF804FBFFF7B1
:10033C00D3FFFFF7D1FFFFF7CFFF00BF280000204E
:10034C000004004008B50A480A4B03604FF4E1333F
:10035C00436000238360C36003610C2242618361AC
:10036C00C36100F043FF00B908BDFFF7B5FF00BF44
:10037C00700000200038014000B591B02822002107
:10038C0006A8FFF725FF0023019302930393049320
:10039C0005930223069301220A9210220B920D93CD
:1003AC0006A800F045FA70B90F23019302230293BB
:1003BC00002103910491059101A800F079FC20B96A
:1003CC0011B05DF804FBFFF787FFFFF785FF08B559
:1003DC0000F0F4F9FFF7D0FFFFF74CFFFFF77EFFBB
:1003EC00FFF7B0FFFEE7FEE7FEE7FEE7FEE7FEE7FE
:1003FC0070477047704708B500F0F2F908BD00006F
:10040C0082B00E4B9A6942F001029A619A6902F02D
:10041C0001020092009ADA6942F08052DA61DB69DB
:10042C0003F080530193019B054A536823F0E0636A
:10043C0043F00073536002B0704700BF00100240DD
:10044C00000001400268094B9A4200D0704782B00C
:10045C0003F50333DA6942F00202DA61DB6903F077
:10046C0002030193019B02B0704700BF00040040DF
:10047C0010B586B00023029303930493059302688E
:10048C00174B9A4201D006B010BD03F558439A6938
:10049C0042F480429A619A6902F480420092009A76
:1004AC009A6942F004029A619B6903F00403019378
:1004BC00019B4FF4007302930223039303230593D0
:1004CC00084C02A9204600F0CFFC4FF48063029345
:1004DC0000230393049302A9204600F0C5FCD2E745
:1004EC00003801400008014010B4036A046A24F08B
:1004FC0001040462846924F0F00C4CEA021223F02B
:10050C000A030B438261036210BC704710B4046A87
:10051C0024F0100404628469036A24F4704C4CEADD
:10052C00023223F0A00343EA01138261036210BC80
:10053C007047836823F070030B4343F00703836019
:10054C007047000003681B4A90420AD0B0F1804FFC
:10055C0007D0A2F59432904203D002F5806290420B
:10056C0003D123F070034A681343124A90420AD015
:10057C00B0F1804F07D0A2F59432904203D002F52F
:10058C008062904203D123F44073CA68134323F072
:10059C0080034A69134303608B68C3620B688362F0
:1005AC00044B984202D00123436170470B690363EB
:1005BC00F9E700BF002C014040B310B5044690F899
:1005CC003D30F3B1022384F83D30214651F8040B41
:1005DC00FFF7B8FF012384F8463084F83E3084F8E6
:1005EC003F3084F8403084F8413084F8423084F84D
:1005FC00433084F8443084F8453084F83D30002092
:10060C0010BD80F83C30FFF71DFFDBE70120704781
:10061C0010B4846824F47F4C42EA03220A4342EA71
:10062C000C02826010BC704790F83C30012B66D0F5
:10063C0010B50446012380F83C30022380F83D308D
:10064C000268936823F47F4323F0770393600B686D
:10065C00602B40D022D8402B47D00BD9502B0ED139
:10066C00CA6849680068FFF73FFF50212068FFF710
:10067C0060FF04E0202B0CD008D9302B09D00123CB
:10068C0084F83D30002084F83C0010BD0BB1102BD9
:10069C00F5D119462068FFF74CFFF0E7702B0ED010
:1006AC00B3F5005FEBD1CB684A6889680068FFF747
:1006BC00AFFF2268936843F480439360DFE7CB6815
:1006CC004A6889680068FFF7A3FF2268936843F0C3
:1006DC0077039360D3E7CA6849680068FFF716FF91
:1006EC0060212068FFF725FFC9E7CA6849680068E0
:1006FC00FFF7FAFE40212068FFF71BFFBFE702203F
:10070C007047000090F83C30012B2CD010B4012322
:10071C0080F83C30022380F83D3003685A689C68AE
:10072C0022F0700C0A6842EA0C025A6003680F4A05
:10073C0093420AD0B3F1804F07D0A2F59432934282
:10074C0003D002F58062934204D124F080044A68FD
:10075C0014439C60012380F83D30002380F83C302A
:10076C00184610BC70470220704700BF002C014097
:10077C0010B504460E4B18784FF47A73B3FBF0F3B4
:10078C000C4A1068B0FBF3F000F0D0FC68B90F2CE9
:10079C0001D901200AE0002221464FF0FF3000F081
:1007AC008DFC054B1C60002000E0012010BD00BF3B
:1007BC0000000020080000200400002008B5074AB3
:1007CC00136843F010031360032000F065FC0F2046
:1007DC00FFF7CEFFFFF714FE002008BD00200240FB
:1007EC00034A1168034B1B780B441360704700BF1E
:1007FC00B400002000000020014B1868704700BFB7
:10080C00B400002082B0084B1B68084AA2FB0323EB
:10081C005B0A00FB03F3019300BF019B5A1E01927C
:10082C00002BF9D102B0704708000020D34D6210A4
:10083C00002800F0F18170B582B00446036813F013
:10084C00010F2CD0994B5B6803F00C03042B1DD0CB
:10085C00964B5B6803F00C03082B12D06368B3F55E
:10086C00803F41D0002B55D103F1804303F5043375
:10087C001A6822F480321A601A6822F480221A60F4
:10088C0037E08A4B5B6813F4803FE7D0874B1B68DB
:10089C0013F4003F03D06368002B00F0BF81236882
:1008AC0013F0020F75D0814B5B6813F00C0F5FD007
:1008BC007E4B5B6803F00C03082B54D02369002B90
:1008CC0000F08A807A4B01221A60FFF795FF0546EB
:1008DC00764B1B6813F0020F75D1FFF78DFF401B91
:1008EC000228F5D903209EE1704A136843F4803343
:1008FC001360636843B3FFF77FFF05466B4B1B68C0
:10090C0013F4003FCBD1FFF777FF401B6428F5D9D8
:10091C00032088E1B3F5A02F09D0644B1A6822F4A8
:10092C0080321A601A6822F480221A60E1E703F11F
:10093C008043A3F53C331A6842F480221A601A688B
:10094C0042F480321A60D4E7FFF756FF0546574B46
:10095C001B6813F4003FA2D0FFF74EFF401B642826
:10096C00F5D903205FE1514B5B6813F4803FA5D1AF
:10097C004E4B1B6813F0020F03D02369012B40F080
:10098C004F814A4A136823F0F803616943EAC103B3
:10099C001360236813F0080F33D0A369002B5CD0CD
:1009AC00434B0122C3F88024FFF726FF05463F4B3B
:1009BC005B6A13F0020F21D1FFF71EFF401B0228C8
:1009CC00F5D903202FE1394A136823F0F803616944
:1009DC0043EAC1031360DCE7354B00221A60FFF7D2
:1009EC000BFF0546314B1B6813F0020FD1D0FFF7FC
:1009FC0003FF401B0228F5D9032014E10120FFF767
:100A0C0001FF236813F0040F00F09680274BDB697D
:100A1C0013F0805F34D1254BDA6942F08052DA61F1
:100A2C00DB6903F080530193019B0125214B1B686B
:100A3C0013F4807F26D0E368012B3DD0002B53D1DB
:100A4C0003F1804303F504331A6A22F001021A629F
:100A5C001A6A22F004021A6233E0154B0022C3F822
:100A6C008024FFF7C9FE0546104B5B6A13F0020F9A
:100A7C00C7D0FFF7C1FE401B0228F5D90320D2E0F6
:100A8C000025D3E70B4A136843F480731360FFF718
:100A9C00B3FE0646074B1B6813F4807FCBD1FFF7E0
:100AAC00ABFE801B6428F5D90320BCE0001002408B
:100ABC0000004242007000405F4A136A43F0010399
:100ACC001362E36833B3FFF797FE06465A4B1B6A73
:100ADC0013F0020F2FD1FFF78FFE801B41F28833EA
:100AEC009842F3D903209EE0052B09D0524B1A6A89
:100AFC0022F001021A621A6A22F004021A62E0E77A
:100B0C004D4B1A6A42F004021A621A6A42F0010250
:100B1C001A62D6E7FFF770FE0646474B1B6A13F0C6
:100B2C00020F08D0FFF768FE801B41F28833984211
:100B3C00F3D9032077E0E5B9E369002B72D03E4A84
:100B4C00526802F00C02082A56D0022B17D03B4BED
:100B5C0000221A66FFF750FE0446374B1B6813F051
:100B6C00007F47D0FFF748FE001B0228F5D9032071
:100B7C0059E0314AD36923F08053D361DCE72F4B22
:100B8C0000221A66FFF738FE05462B4B1B6813F044
:100B9C00007F06D0FFF730FE401B0228F5D903205A
:100BAC0041E0236AB3F5803F1AD023494B6823F404
:100BBC007413226A606A024313434B601F4B012279
:100BCC001A66FFF719FE04461B4B1B6813F0007FD7
:100BDC000ED1FFF711FE001B0228F5D9032022E0ED
:100BEC00154A536823F40033A1680B435360DCE7C8
:100BFC00002018E0002016E0012B16D00E4B5B688D
:100C0C0003F48031226A914211D103F47013626AA9
:100C1C0093420ED1002006E001207047012002E033
:100C2C00012000E0002002B070BD0120FBE7012094
:100C3C00F9E70120F7E700BF001002400000424234
:100C4C0086B0174B0FCB0DF1180C0CE90F0040F2CE
:100C5C000123ADF80430134B5B6803F00C02082A37
:100C6C0002D0114806B07047C3F3834218326A446D
:100C7C0012F8100C13F4803F0DD00A4B5B68C3F3D1
:100C8C00404318336B4413F8143C074A02FB00F042
:100C9C00B0FBF3F0E6E7054B03FB00F0E2E700BF27
:100CAC00BC1200080010024000127A0000093D003E
:100CBC00002800F0A08070B50D460446524B1B680E
:100CCC0003F007038B420BD24F4A136823F0070340
:100CDC000B431360136803F007038B4240F08D80C5
:100CEC00236813F0020F17D013F0040F04D0474AF7
:100CFC00536843F4E0635360236813F0080F04D087
:100D0C00424A536843F460535360404A536823F09B
:100D1C00F003A1680B435360236813F0010F31D02B
:100D2C006368012B20D0022B25D0384A126812F0B0
:100D3C00020F64D035494A6822F0030213434B601A
:100D4C00FFF75AFD0646314B5B6803F00C036268F3
:100D5C00B3EB820F16D0FFF74FFD801B41F28833A7
:100D6C009842F0D9032045E0284A126812F4003F5B
:100D7C00E0D101203EE0254A126812F0007FD9D163
:100D8C00012037E0204B1B6803F00703AB420AD964
:100D9C001D4A136823F007032B431360136803F0F9
:100DAC000703AB422DD1236813F0040F06D0174A6A
:100DBC00536823F4E063E1680B435360236813F03A
:100DCC00080F07D0114A536823F46053216943EA92
:100DDC00C1035360FFF734FF0C4B5B68C3F3031381
:100DEC000B4AD35CD8400B4B18600B4B1868FFF7C1
:100DFC00BFFC002070BD012070470120FAE70120E4
:100E0C00F8E70120F6E700BF002002400010024086
:100E1C00D01200080800002004000020014B1868C4
:100E2C00704700BF0800002008B5FFF7F7FF044B20
:100E3C005B68C3F30223034AD35CD84008BD00BFF0
:100E4C0000100240E012000808B5FFF7E7FF044B62
:100E5C005B68C3F3C223034AD35CD84008BD00BF10
:100E6C0000100240E012000870B582B00024A446C5
:100E7C00A6E0804DAA4210D007D97F4DAA420CD0D3
:100E8C0005F58035AA4208D013E0A5F58015AA42D5
:100E9C0003D005F57025AA4207D18A68002A58D0DC
:100EAC00012A51D04361082403E0A5F58015AA421C
:100EBC00F3D0BEF1FF0F4ED80646BEF1FF0F4CD853
:100ECC004FEA8C0233680F25954023EA050304FA98
:100EDC0002F2134333604B6813F0805F6ED0674BA4
:100EEC009A6942F001029A619B6903F00103019334
:100EFC00019B4FEA9C02951C614B53F825600CF04A
:100F0C0003039D000F23AB4026EA03065D4B98427A
:100F1C0029D003F58063984200F08E8003F580633E
:100F2C00984200F08B8003F58063984219D004231B
:100F3C001AE0CC68BDE7CC680434BAE7CC68083456
:100F4C00B7E7CC680C34B4E703610824B1E700249C
:100F5C00AFE70424ADE7061DAFE7ACF10802920041
:100F6C00B0E7032300E00023AB4033430232444D8F
:100F7C0045F822304B6813F4803F61D0424A136825
:100F8C0043EA0E0313604B6813F4003F5ED03E4AF5
:100F9C00536843EA0E0353604B6813F4801F5BD015
:100FAC00394A936843EA0E0393604B6813F4001FAD
:100FBC0058D0354AD36843EA0E03D3600CF1010CC8
:100FCC000A6832FA0CF353D0012303FA0CF302EA49
:100FDC00030E33EA0202F1D14A68122A3FF649AFF6
:100FEC00122A3FF666AF01A555F822F0A70E0008AD
:100FFC003F0F0008490F00085B0F0008BF0E0008E8
:10100C00BF0E0008BF0E0008BF0E0008BF0E000880
:10101C00BF0E0008BF0E0008BF0E0008BF0E000870
:10102C00BF0E0008BF0E0008BF0E0008BF0E000860
:10103C00430F00084F0F0008012395E7022393E7A5
:10104C00114A136823EA0E0313609CE70E4A536897
:10105C0023EA0E0353609FE70B4A936823EA0E03BF
:10106C009360A2E7084AD36823EA0E03D360A5E78E
:10107C0002B070BD000022100000311000100240C0
:10108C000000014000080140000401400AB1016168
:10109C007047090401617047074AD36823F4E06381
:1010AC001B041B0C000200F4E060034343F0BF631D
:1010BC0043F40033D360704700ED00E000B5194BEA
:1010CC00DB68C3F30223C3F1070CBCF1040F28BF88
:1010DC004FF0040C03F1040EBEF1060F18D9033BBC
:1010EC004FF0FF3E0EFA0CFC21EA0C0199400EFA6F
:1010FC0003F322EA0303194300280BDB0901C9B2ED
:10110C0000F1604000F5614080F800135DF804FBCD
:10111C000023E5E700F00F000901C9B2024B195496
:10112C00F4E700BF00ED00E014ED00E00138B0F191
:10113C00807F0BD24FF0E0235861054AF02182F8F2
:10114C0023100020986107221A6170470120704714
:10115C0000ED00E07047000010B50446026813690A
:10116C0023F44053C1680B43136183680269134332
:10117C0042691A430168CB6823F4B05323F00C0383
:10118C001343CB600268536923F4407381690B43AA
:10119C0053610268134B9A4220D0FFF745FE02467A
:1011AC0002EB820202EB820263689B00B2FBF3F259
:1011BC000D48A0FB02314909642303FB11231B01D9
:1011CC003233A0FB03235B0903F0F00202EB0112A4
:1011DC0003F00F03216813448B6010BDFFF734FE3E
:1011EC000246DDE7003801401F85EB5158B310B5BE
:1011FC00044690F83D300BB3242384F83D3022682C
:10120C00D36823F40053D3602046FFF7A5FF226870
:10121C00136923F4904313612268536923F02A0362
:10122C0053612268D36843F40053D36000202064D8
:10123C00202384F83D3084F83E3010BD80F83C30DB
:10124C00FFF716F9D8E70120704700000C480D494C
:10125C000D4A002302E0D458C4500433C4188C4205
:10126C00F9D30A4A0A4C002301E013600432A2426B
:10127C00FBD3FFF76FFFFEF787FFFFF7A8F8704768
:10128C00000000200C000020F01200080C000020D0
:10129C00B8000020FEE70000F8B500BFF8BC08BCA1
:1012AC009E467047F8B500BFF8BC08BC9E46704718
:1012BC0002030405060708090A0B0C0D0E0F10108B
:1012CC000000000000000000000000000102030408
:0C12DC00060708090000000001020304DE
:0412E8007501000884
:0412EC004D010008A8
:0C12F00001000000100000000024F400C9
:040000050800125984
:00000001FF
