:020000040800F2
:10000000005000203D2900081D1F00081F1F000888
:10001000211F0008231F0008251F00080000000002
:10002000000000000000000000000000271F000882
:10003000291F0008000000002B1F00082D1F0008CA
:1000400085290008852900088529000885290008D8
:1000500085290008852900088529000885290008C8
:1000600085290008852900088529000885290008B8
:1000700085290008852900088529000885290008A8
:100080008529000885290008852900088529000898
:100090008529000885290008852900088529000888
:1000A0008529000885290008852900088529000878
:1000B0008529000885290008852900088529000868
:1000C0008529000885290008852900088529000858
:1000D0008529000885290008852900088529000848
:1000E00085290008852900088529000800000000EE
:1000F0000000000000000000000000000000000000
:0C01000000000000000000005FF808F1A3
:10010C000348044B834202D0034B03B1184770479A
:10011C007000002070000020000000000548064917
:10012C000B1AD90F01EBA301491002D0034B03B1F9
:10013C00184770477000002070000020000000007D
:10014C0010B5064C237843B9FFF7DAFF044B13B113
:10015C000448AFF300800123237010BD7000002011
:10016C00000000008829000808B5044B1BB10449A5
:10017C000448AFF30080BDE80840CFE70000000062
:10018C007400002088290008144600B51A460A4B52
:10019C000D461B6885B0DE6803464CB107490191DA
:1001AC00304607490294009500F022F800F00AFD51
:1001BC0004490C46F3E700BF00000020802A000829
:1001CC00902A00086C2A000808B513460022FFF795
:1001DC00DBFF00BF0CB400B583B004AB53F8042BA9
:1001EC00019300F0C9F803B05DF804EB02B070475E
:1001FC000EB400B5074A82B003AB0146106853F841
:10020C00042B019300F0B8F802B05DF804EB03B0D6
:10021C00704700BF0000002070B50D4E0D4D761BD1
:10022C00B61006D0002455F8043B01349847A6427A
:10023C00F9D1094E094D02F0A1FB761BB61006D080
:10024C00002455F8043B01349847A642F9D170BDFF
:10025C00FC2A0008FC2A0008002B0008FC2A0008D5
:10026C00830730B548D0541E002A3FD00346CAB28B
:10027C0001E0013C3AD303F8012B9D07F9D1032C83
:10028C002DD9CDB245EA05250F2C45EA054536D9C1
:10029C00A4F1100222F00F0C03F1200EE6444FEAF9
:1002AC00121C03F1100242E9045542E902551032C6
:1002BC007245F8D10CF1010214F00C0F03EB021291
:1002CC0004F00F0C13D0ACF1040323F0030304333C
:1002DC00134442F8045B9342FBD10CF003042CB1A1
:1002EC00CAB21C4403F8012B9C42FBD130BD6446BE
:1002FC001346002CF4D1F9E703461446BFE71A461F
:10030C00A446E0E79368013B002B936005DAD2F832
:10031C0018C0634507DB0A2905D01368581C106008
:10032C0008461970704700F069BB00BF9BB1F8B567
:10033C00134406460F46541E5D1E01E0AC4208D025
:10034C003A46304614F8011FFFF7DCFF431CF5D189
:10035C00F8BD0020F8BD0020704700BF936810B5B1
:10036C00144613B91846536010BD00F039FE002333
:10037C00C4E9013310BD00BF2DE9F04F0E46924683
:10038C001C4607469FB018B18369002B00F0A8806B
:10039C00954B9E4200F0AA80944B9E4200F0B58093
:1003AC00934B9E4208BFFE68B389180740F1A380A7
:1003BC003369002B00F09F80002320220B93302305
:1003CC009AF80010059401258A4C8DF831208DF88F
:1003DC00323000297DD0D1460B4604E019F8013F9C
:1003EC00002B00F09480252BF8D1B9EB0A0B40F0D0
:1003FC00918099F80030002B6BD000234FF0FF3226
:10040C0009F10109CDE90723069309938DF85B30B7
:10041C001C9304E0001B05FA00F018430690CA4632
:10042C000522204619F8011B01F024F8069B002830
:10043C00F0D1D90644BF20228DF85B201A0748BFA3
:10044C002B229AF8001048BF8DF85B202A2972D114
:10045C00059A1168043200290592C0F2A080099116
:10046C009AF801100AF1010A2E2976D0DFF888914A
:10047C000322484600F0FEFF48B14022069BA0EB49
:10048C00090002FA00F003430AF1010A06931AF874
:10049C00011B062259488DF8301000F0EBFF0028A4
:1004AC0000F08380564B002B6CD005A9009132468E
:1004BC003846544B06A9AFF300800390039B0133DD
:1004CC0007D00B9B039A9AF8001013440B93002946
:1004DC0081D1B3895B0615D40B981FB0BDE8F08FA2
:1004EC0000F05EFD404B9E427FF456AF7E68B389B0
:1004FC0018073FF55DAF3146384600F0E1FA0028A9
:10050C003FF45AAF4FF0FF30E7E7BE684CE7B9EB6A
:10051C000A0BDED0D046CAF1010A03E0934538D964
:10052C0018F8011F32463846FFF7ECFE01300AEB93
:10053C000802F3D1CDE7A1F13002092A94D8099B26
:10054C001AF8011F03EB830302EB4303A1F1300202
:10055C00092AF5D92E29099388D19AF801102A294C
:10056C002DD1059B0AF102001A680433002A059369
:10057C00B8BF4FF0FF339AF8021007928246B8BF0B
:10058C00079373E7059B073323F0070308330593A1
:10059C0097E70B9A99F800305A440B922BE7494293
:1005AC0043F00203099106935AE705A900913246DC
:1005BC003846144B06A900F0CBF803907EE70023D5
:1005CC00A1F13002092A0AF1010A07933FF64EAF56
:1005DC001AF8011F03EB830302EB4303A1F1300272
:1005EC00092AF5D9079341E7E4290008C429000832
:1005FC00A4290008C02A0008C82A0008CC2A000830
:10060C0000000000390300088C4600B586461346EE
:10061C00034A714610685DF804EB6246FFF7ACBE06
:10062C00000000202DE9F04791461E460A698B68B0
:10063C000C469A42B8BF1A46C9F8002091F84330CC
:10064C000546DDF8208013B10132C9F8002022687C
:10065C0091065DD5D9F800300233C9F80030226814
:10066C0012F0060F11461ED1E168CB1A002BD8BF31
:10067C00114618DD002704F1190A06E0D9F80030FC
:10068C00E268A2EB030CBC450CDD0123524631465B
:10069C002846C047013007F10107EFD14FF0FF307A
:1006AC00BDE8F087216894F84330003B18BF012364
:1006BC008A060AD53021E21882F8431094F84510C6
:1006CC005A1C2244023382F843103146284604F166
:1006DC004302C0470130E1D0236803F00603042B2A
:1006EC001DD0A3682269934225DD00279B1A1F4465
:1006FC0004F11A09002401E0BC421CDA01234A4629
:10070C0031462846C047013004F10104F4D1C5E755
:10071C0012F0060F12D0003B18BF0123D5E7D9F811
:10072C000030E1682269C91AA36821EAE177934293
:10073C00DCDC0029DCDC0020BDE8F087E168D9F8BE
:10074C000030CB1A002BD8BF114693DCABE700BFAF
:10075C002DE9F04317460A7E85B00C4606469846AE
:10076C000C9D01F1430C002A33D0A2F15803D9B2ED
:10077C00202967D8202B65D8DFE813F0DD00640052
:10078C00640064006400640064006400640064003D
:10079C006400A3006E0064006400640064006E00DA
:1007AC00640064006400640021007F00BF006400EA
:1007BC006400AE0064007F0064006400E400236801
:1007CC001A0640F102812B686269191D29601B68A9
:1007DC001A600023E14623613B4621463046CDF8A2
:1007EC00008003AAFFF71EFF013020D04A4639468D
:1007FC0030462369C047013019D02368E0689B0755
:10080C00039919D5431A002B16DD002504F119099B
:10081C0004E0E0680399431AAB420DDD01234A461C
:10082C0039463046C047013005F10105F1D14FF092
:10083C00FF3005B0BDE8F0838842B8BF084605B06C
:10084C00BDE8F083012384F8422004F142092361BE
:10085C00002384F84330BFE72368190602D45A06F4
:10086C0000F1BF8029680A68043129601146002A0A
:10087C006ADB0A25DFF87CE110E02368180640F1FA
:10088C009A802B68191D296019686F2A0CBF0825DE
:10089C000A25DFF860E1002384F843306268002AFF
:1008AC00A2607DDB236823F004032360002959D167
:1008BC00002A77D1E146082D63D0ACEB0903236104
:1008CC008AE701222B6804F14209196804332B6072
:1008DC0084F842102261BBE72B6800211A1D2A60A4
:1008EC00D3F800906268484600F0C4FD00287FD021
:1008FC00A0EB090060602061AAE7236843F02003A5
:10090C0023607822DFF8F0E084F845202A68111D76
:10091C002960190642D45D0640D51188D80744BF1A
:10092C0043F020032360002943D12368102523F0D2
:10093C0020032360AFE75823DFF8B8E084F8453094
:10094C002368E3E72368DCE72D2284F84320626800
:10095C004942002AA26002DB23F0040323600A252B
:10096C00DFF890E0E146B1FBF5F30A4605FB131006
:10097C0019461EF80030AA4209F8013DF3D2082DA1
:10098C009BD12368D90798D5626823699A4294DC75
:10099C00302309F1FF3989F800308EE71168BDE783
:1009AC000029DFD19EF8003004F1420984F842306E
:1009BC0081E710256FE713F0400F2B6803F104015A
:1009CC0029600CBF196819885FE713F0400F2B687A
:1009DC00626903F1040129601B6814BF1A801A6054
:1009EC00F7E62A68B2F9001004322A600A463EE79C
:1009FC00606880E7D42A0008E82A0008F8B50646A3
:100A0C000D46144608B1836943B3254B9C422AD04A
:100A1C00244B9C4229D0244B9C4208BFF468A26909
:100A2C00A389A2601A0722D5236903B322686169DE
:100A3C00D31AEDB299422F4629DD0133A168013951
:100A4C00A160511C2160157062699A4216D0A3896D
:100A5C00DB0701D50A2D11D03846F8BD00F0A0FAFD
:100A6C000F4B9C42D4D17468D9E7B468D7E72146C0
:100A7C00304600F025F838B92369D7E721463046CF
:100A8C0000F02CF90028E7D04FF0FF37E4E72146BF
:100A9C00304600F023F90028F6D101232268CDE777
:100AAC00E4290008C4290008A429000803460A46C2
:100ABC00024908681946FFF7A1BF00BF00000020DB
:100ACC003C4B70B51D6806460C460DB1AB69E3B1E5
:100ADC00394B9C421FD0394B9C424DD0384B9C42D9
:100AEC0008BFEC68B4F90C3018079AB219D5216913
:100AFC0011B312F001002FD000256069A5604042AF
:100B0C00A06100292ED0002070BD284600F048FAC4
:100B1C00294B9C42DFD16C68B4F90C3018079AB29F
:100B2C00E5D4D1063ED5520728D4216943F00803F9
:100B3C00A3819AB20029DCD102F42070B0F5007FB9
:100B4C00D7D02146304600F007FCB4F90C302169AF
:100B5C009AB212F00100CFD1950758BF6069A0601E
:100B6C000029D0D1120658BF0846CDD543F040031A
:100B7C004FF0FF30A38170BDAC68B3E7616B51B12E
:100B8C0004F14402914204D0304600F0ADFDB4F9BA
:100B9C000C30002262630022216923F02403C4E993
:100BAC000012C3E7092243F0400332604FF0FF30DC
:100BBC00A38170BD00000020E4290008C4290008AE
:100BCC00A4290008062008B500F020FF012001F040
:100BDC00F1F800BFF8B58B890C46190707463BD4D2
:100BEC006268002A55DDE66A002E50D000223D686E
:100BFC003A6013F4805250D101233846216AB04731
:100C0C00421C5CD0A389E66A5B0705D56368C01AF1
:100C1C00636B0BB1236CC01A0246216A0023384661
:100C2C00B047411C3BD13B68002B38D01D2B01D069
:100C3C00162B4BD100232269C4E90023616B3D6064
:100C4C0029B304F14403994202D0384600F04CFD1C
:100C5C00002318466363F8BD2669C6B19A0718BF0E
:100C6C000023256808BF63692660AD1BA3600CE0F8
:100C7C002B463246D4F828C03846216AE047B0F1FA
:100C8C00000CA5EB0C05664412DD002DF0DC0020F9
:100C9C00F8BD226C002AA6DCF9E7606DB4E70022EF
:100CAC00236962602360A389DB04C7D56065C5E74F
:100CBC00A3894FF0FF3043F04003A381F8BD3B689C
:100CCC00002B9FD01D2B06D0162B04D0A38943F0EC
:100CDC004003A381F8BD00203D60F8BD38B50B6919
:100CEC00BBB10C46054608B18369B3B10D4B9C42B0
:100CFC0011D00D4B9C4213D00C4B9C4208BFEC689E
:100D0C00B4F90C302BB121462846BDE83840FFF72A
:100D1C0061BF002038BD6C68F2E700F041F9E5E7EF
:100D2C00AC68EDE7E4290008C4290008A4290008F0
:100D3C0038B540B303690446E3B1174B1D680DB1D8
:100D4C00AB69CBB1154B9C420FD0154B9C4221D0BB
:100D5C00144B9C4208BFEC68B4F90C3053B12146DB
:100D6C002846BDE83840FFF735BF6C68B4F90C3045
:100D7C00002BF4D1002038BD284600F011F9074BA8
:100D8C009C42E2D1F1E7084B08491868BDE83840AD
:100D9C0000F0BEBAAC68DFE700000020E4290008D0
:100DAC00C4290008A4290008A0290008E90C00089F
:100DBC0000207047014900F0ABBA00BFE90C0008F5
:100DCC0000207047682270B54D1E02FB05F50E46DB
:100DDC0005F1740100F0EEFC044640B100210C302A
:100DEC00C4E9016005F168022160FFF739FA204679
:100DFC0070BD00BF274B2DE9F0411E680746B36953
:100E0C0053B34FF004084836D6E90134013B04D5FE
:100E1C001EE05A1C04F168041AD0B4F90C50013BC2
:100E2C00002DF6D11C4B08222946C4E90055C4E913
:100E3C000253C4E904556566A56104F15C00FFF733
:100E4C000FFAC4E90D55C4E912552046BDE8F081EE
:100E5C0035682DB12E46D7E7304600F01FF8D0E7A5
:100E6C004FF4D671384600F0A5FC044668B1056015
:100E7C0029460546C0F804800C304FF4D072A060AF
:100E8C00FFF7EEF934602E46BEE70C2330603B6072
:100E9C00DBE700BFA02900080100FFFF0023334A55
:100EAC002DE9F0471268C0E912339042036508BF80
:100EBC0001232F4908BF836181620546FFF79AFF22
:100ECC00034628466B60FFF795FFA8602846002470
:100EDC00FFF790FF04236E68DFF898A0DFF8989076
:100EEC00DFF89880264FE8600822F3602146C6E9B7
:100EFC000044C6E904447466B460B46106F15C0055
:100F0C00FFF7AEF91F4BC6E9086AC6E90A983763C2
:100F1C00AE680822F3602146C6E90044C6E90444E1
:100F2C007466B460B46106F15C00FFF799F9164B76
:100F3C00C6E9086AC6E90A983763EE682146F36089
:100F4C000822C6E90044C6E904447466B460B4617E
:100F5C0006F15C00FFF784F90123C6E9086AC6E9CB
:100F6C000B87C6F82890AB61BDE8F087A029000874
:100F7C00C10D0008851B0008AD1B0008ED1B000807
:100F8C000D1C00080900010012000200024B03496D
:100F9C00186800F0BDB900BFA0290008E90C0008D2
:100FAC00836903B97AE77047704700BF704700BF89
:100FBC00704700BF704700BF024B0349186800F030
:100FCC0087B900BF00000020BD0D0008024B03498B
:100FDC00186800F07DB900BF00000020CD0D00089E
:100FEC009368002B00F0B7802DE9F04FB1F90C306D
:100FFC000C4619078046174683B098B225D523694D
:10100C001BB310F002033D682DD04FF0000B5E4671
:10101C00DFF8B8A2002E00F08B80564533465A46B6
:10102C0028BF53464046216AD4F828C0E047002820
:10103C0040F38780BB6883441B1A361ABB60002BB5
:10104C00E8D1002003B0BDE8F08F21464046FFF701
:10105C0037FD002840F03681B4F90C303D6898B269
:10106C0010F00203D1D110F0010976D14E46002EBA
:10107C005AD08205D4F808B040F1B580B3455A4631
:10108C0000F2CD8010F4906F00F0CB8023682169C2
:10109C00A3EB010B636903EB430A0AEBDA7A0BF15E
:1010AC0001034FEA6A0A33445345524684BF9A46B9
:1010BC005246430540F1EA801146404600F07AFB67
:1010CC00002800F0F9805A462169019000F01AFAC4
:1010DC00A289019B22F4906242F08002A28103EB70
:1010EC000B0023613246AAEB0B03B346C4F814A0E1
:1010FC00A3602060B24600264946019200F078FABF
:10110C00A3682168019AA3EB0B030A44A360226035
:10111C00B868D144A0EB0A00B860002891D0B4F9AB
:10112C000C0080B2002EA4D1D5E9009608359EE7BC
:10113C00D5E900B608356DE721464046FFF7CEFDF0
:10114C0080B3B4F90C304FF0FF3043F04003A3816F
:10115C0003B0BDE8F08F002070471E46AA469946A2
:10116C0018461D4656B3002832D04A4620682169DD
:10117C00B24228BF32468842636904D9A16803EBA6
:10118C00010B5A4574DC934265DC2A464046216AC1
:10119C00D4F828C0E047B0F1000BD2DDB9EB0B0955
:1011AC00CAD00120BB685D44A3EB0B03A6EB0B0676
:1011BC00BB60002B3FF445AF002ED4D10AF10803DD
:1011CC0053F8046C9A4653F8085C0833002EF7D099
:1011DC0032460A21284600F04DF9002869D001302A
:1011EC00A0EB0509C1E72068236998421BD8636905
:1011FC00B34218D86FF0004CB44528BFB4469CFBE2
:10120C00F3FC4A4603FB0CF34046216AD4F828C091
:10121C00E047B0F1000A94DDA6EB0A0678E7B34686
:10122C003246206866E7B345DA4628BFB2464946DF
:10123C00524600F0DDF9A3682268A3EB0A0352447E
:10124C00A3602260002BE7D121464046FFF746FD04
:10125C000028E1D075E729469346019200F0C8F9C1
:10126C00A368019A9B1AA36023681A44226095E72D
:10127C0029465A4600F0BCF9236821465B44404697
:10128C002360FFF72BFD002888D05AE7404600F07A
:10129C00EDFA034600287FF422AF4046216900F0A6
:1012AC0023FA0C22B4F90C30C8F8002023F0800388
:1012BC0049E7721C914659E70C22B4F90C30C8F876
:1012CC00002040E74FF0FF30BCE600BF00FCFF7F82
:1012DC002DE9F0410026884600F14807D7E9015472
:1012EC00013D0ED4A389013D012B06D9B4F90E3072
:1012FC00013302D02046C04706436B1C04F168043E
:10130C00F0D13F68002FE9D13046BDE8F08100BF35
:10131C002DE9F8434FF000090746884600F14806CE
:10132C00D6E90154013D10D4A389013D012B08D904
:10133C00B4F90E30013304D021463846C04749EA8F
:10134C0000096B1C04F16804EED13668002EE7D15D
:10135C004846BDE8F88300BFF0B58B890C46990769
:10136C0097B007D5012204F14703C4E90432236086
:10137C0017B0F0BDB4F90E10054600292DDB6A46F6
:10138C0000F06AFC002827DB019E4FF4806706F40E
:10139C007046A6F50056B6FA86F639462846760902
:1013AC0000F008FA30B3A3891A4A43F08003AA620A
:1013BC00C4E90407A3812060002ED9D02846B4F9D3
:1013CC000E1000F05DFC0028D2D0A38923F003039B
:1013DC0043F00103A381CBE7A38913F0800F14BF63
:1013EC0040274FF4806728463946002600F0E2F982
:1013FC000028D8D1B4F90C309A05B9D4012123F0C6
:10140C00030304F1470243F00203C4E90421A3815E
:10141C002260ADE7C10D000870B50C46B1F90E1095
:10142C00164600291D4696B013DB6A4600F014FCE4
:10143C0000280EDB01994FF4806301F47041A1F593
:10144C000051B1FA81F1002049092960336016B0CE
:10145C0070BD0022B4F90C302A601B0604D5402361
:10146C000020336016B070BD4FF4806300203360F1
:10147C0016B070BD5FFA81FC810710D00346511E77
:10148C002AB90AE09A0718460AD0013905D318463A
:10149C0013F8012B6245F5D17047002070471146B7
:1014AC0003290CD80029F8D00346014401E08B42F3
:1014BC00F3D0184613F8012B6245F8D1ECE702463D
:1014CC0010B54CEA0C2444EA044410460368043278
:1014DC006340A3F1013E2EEA030313F0803F04D1D5
:1014EC00043903291046F0D851B10346014401E0F8
:1014FC008B4205D0184613F8012B6245F8D110BD6C
:10150C00002010BD844641EA000313F0030349D1C7
:10151C00403A23D30B6803604B6843608B6883604D
:10152C00CB68C3600B6903614B6943618B69836151
:10153C00CB69C3610B6A03624B6A43628B6A836239
:10154C00CB6AC3620B6B03634B6B43638B6B836321
:10155C00CB6BC36340304031403ADBD230320BD3DB
:10156C000B6803604B6843608B688360CB68C36017
:10157C0010301031103AF3D20C3205D351F8043B31
:10158C0040F8043B043AF9D2043208D0D2071CBF0D
:10159C0011F8013B00F8013B01D30B880380604636
:1015AC00704700BF082A13D38B07B1D010F0030388
:1015BC00AED0C3F10403D21ADB071CBF11F8013BF8
:1015CC0000F8013BA4D331F8023B20F8023B9FE723
:1015DC00043AD9D3013A11F8013B00F8013BF9D296
:1015EC000B7803704B7843708B7883706046704730
:1015FC0088420DD98B1883420AD900EB020CBAB180
:10160C00624613F801CD994202F801CDF9D1704729
:10161C000F2A0ED8034602F1FF3C4AB10CF1010C23
:10162C00013B8C4411F8012B614503F8012FF9D1D2
:10163C00704740EA01039B074FD1A2F1100370B52C
:10164C0001F1200C23F00F0501F1100E00F1100434
:10165C00AC441B095EF8105C0EF1100E44F8105CE3
:10166C005EF81C5C103444F81C5C5EF8185C44F8A2
:10167C00185C5EF8145CE64544F8145CEAD101335E
:10168C0012F00C0F01EB031102F00F0400EB03132B
:10169C0027D08E46043C24F003064FEA940C1E44DB
:1016AC001C1F5EF8045B44F8045FB442F9D10CF1E2
:1016BC00010402F0030203EB840301EB840102F149
:1016CC00FF3C4AB10CF1010C013B8C4411F8012B8D
:1016DC00614503F8012FF9D170BD034602F1FF3CBF
:1016EC009CE72246EBE700BF002952D038B551F8F1
:1016FC00043C0C1F002BB8BFE418054600F0E8FAB8
:10170C002B4A1368002B45D0A3420CD921686018D2
:10171C00834228D0636028461460BDE8384000F04E
:10172C00D9BAA3420FD81A465B68002BF9D11168BD
:10173C00501884421DD034D3636054602846BDE8F1
:10174C00384000F0C7BA11685018A04215D028D8FC
:10175C00216860188342EFD118685B680144C4E9C2
:10176C0000135460EAE718685B680144C4E900138D
:10177C00D1E7236819441160E0E720680144501850
:10178C0083421160DAD1D3E900030144C2E90013AA
:10179C00D4E77047284663601460BDE8384000F019
:1017AC0099BA0C2328462B60BDE8384000F092BA59
:1017BC008C000020F8B5CD1C25F0030508350C2D48
:1017CC0038BF0C25002D064623DBA94221D8264F15
:1017DC0000F07EFA3A6822B3144603E063682246AE
:1017EC00FBB11C4623685B1BF8D40B2B15D8636824
:1017FC0094420CBF3B605360304600F06BFA04F12E
:10180C000B00231D20F00700C21A01D01B1AA35095
:10181C00F8BD0C2300203360F8BD23601C44256008
:10182C00EAE77968D1B12946304600F047F8431C05
:10183C0001460CD0C41C24F00304A04205D0304651
:10184C00611A00F03BF8013001D02560D4E70C237D
:10185C003046336000F03EFA0020F8BD304600F010
:10186C002DF87860DFE700BF8C000020F8B5144637
:10187C00F9B1CAB106460D4600F02EFAA04202D3C9
:10188C002F463846F8BD21463046FFF793FF0746F2
:10189C000028F6D022462946FFF734FE304629466A
:1018AC00FFF722FF3846F8BD2746FFF71DFF3846E5
:1018BC00F8BD1146BDE8F840FFF77CBF002238B5F3
:1018CC00064D044608462A6000F05EFA431C00D020
:1018DC0038BD2B68002BFBD0236038BD9400002052
:1018EC0038B5446C0CB1002038BD80210546FFF79B
:1018FC0061FF0246686430B1031F7C3243F8044F29
:10190C009342FBD1EFE74FF0FF3038BD1F29F8B5FC
:10191C00054608D8466C0C4617464EB156F82400BE
:10192C0046F82470F8BD16234FF0FF302B60F8BD3D
:10193C008021FFF73FFF0646686440B10021031F7A
:10194C0000F17C0543F8041F9D42FBD1E6E74FF004
:10195C00FF30F8BD1F2938B5054620D8426C0C461F
:10196C006AB152F8213053B1012B16D0591C10D04A
:10197C000025204642F824509847284638BD284672
:10198C0000F0F8F8224601462846BDE8384000F041
:10199C00DDB8162301202B6038BD002038BD16237E
:1019AC004FF0FF302B6038BD1F292BD8426C38B557
:1019BC000C46054682B152F8243002EB84024BB13E
:1019CC00591C1AD0012B16D00025204615609847BB
:1019DC00284638BD012038BD8021FFF7EBFE0246BA
:1019EC00686460B10020131F02F17C0143F8040FFE
:1019FC009942FBD1DFE7032038BD022038BD4FF000
:101A0C00FF3038BD4FF0FF30704700BF38B5144B76
:101A1C001F281D681FD86A6C044662B152F820302A
:101A2C004BB1012B15D0591C0FD0002542F820507A
:101A3C009847284638BD284600F09CF822460146B7
:101A4C002846BDE8384000F081B8162301202B60F1
:101A5C0038BD002038BD16234FF0FF302B6038BD49
:101A6C0000000020124B1F2870B51E6808D80D46C8
:101A7C00716C044649B151F8240041F8245070BDF2
:101A8C0016234FF0FF30336070BD80213046FFF7D6
:101A9C0091FE0146706440B10022031F00F17C0CE2
:101AAC0043F8042F6345FBD1E5E74FF0FF3070BDE1
:101ABC000000002038B50B4B1D686C6C0CB100207D
:101ACC0038BD80212846FFF775FE686438B1031FC6
:101ADC0000F17C0243F8044F9342FBD1EFE74FF047
:101AEC00FF3038BD0000002038B5174B1F281D688B
:101AFC0027D86A6C044682B152F8243002EB840277
:101B0C004BB1591C1BD0012B17D00025204615605A
:101B1C009847284638BD012038BD80212846FFF75C
:101B2C0049FE0246686460B10020131F02F17C017B
:101B3C0043F8040F8B42FBD1DEE7032038BD0220B3
:101B4C0038BD4FF0FF3038BD0000002070B50026C6
:101B5C00074D0446084611462E6000F0FDF8431C64
:101B6C0000D070BD2B68002BFBD0236070BD00BF74
:101B7C009400002000F0E0B810B50C46B1F90E103E
:101B8C0000F0B4F8002803DB636D0344636510BDFB
:101B9C00A38923F48053A38110BD00BF002070479C
:101BAC002DE9F0410C46B1F90C101F46CB0505464A
:101BBC0016460BD421F48051A1813B46324628466F
:101BCC00B4F90E10BDE8F04100F01EB8B4F90E10D7
:101BDC000223002200F066F8B4F90C10EAE700BF0B
:101BEC0010B50C46B1F90E1000F05CF8A389421C3C
:101BFC000EBF23F4805343F480536065A38110BD62
:101C0C00B1F90E1000F016B838B50C46114600228A
:101C1C008446074D20462A601A46644600F0C2F8F6
:101C2C00431C00D038BD2B68002BFBD0236038BD83
:101C3C0094000020002238B5064D044608462A6060
:101C4C0000F06AF8431C00D038BD2B68002BFBD089
:101C5C00236038BD9400002070B50026074D044663
:101C6C00084611462E6000F05FF8431C00D070BD92
:101C7C002B68002BFBD0236070BD00BF94000020AC
:101C8C00002238B5064D044608462A6000F05CF880
:101C9C00431C00D038BD2B68002BFBD0236038BD13
:101CAC009400002038B50C46114600228446074D9E
:101CBC0020462A601A46644600F056F8431C00D0B1
:101CCC0038BD2B68002BFBD0236038BD940000205E
:101CDC00704700BF704700BF51F8040C0028A0F1FA
:101CEC000400BCBF0B58C018704700BF38B50C4679
:101CFC00114600228446074D20462A601A46644647
:101D0C0000F03AF8431C00D038BD2B68002BFBD0F8
:101D1C00236038BD940000205822024B4FF0FF3056
:101D2C001A607047940000205822024B4FF0FF308D
:101D3C001A607047940000205822024B4FF0FF307D
:101D4C001A607047940000205822024B00201A6041
:101D5C00704700BF940000205822024B4FF0FF3018
:101D6C001A607047940000205822024B4FF0FF304D
:101D7C001A607047940000205822024B4FF0FF303D
:101D8C001A60704794000020044A05491368002B20
:101D9C0008BF0B4618441060184670479800002086
:101DAC00A00000205822024B4FF0FF301A60704701
:101DBC0094000020FEE700BF30B587B000240294E9
:101DCC00039404940594134B9A6942F020029A618F
:101DDC009A6902F020020092009A9A6942F0040279
:101DEC009A619B6903F004030193019B0A4D2246FF
:101DFC002021284600F036FD202302930123039373
:101E0C0004940223059302A9284600F019FC07B09C
:101E1C0030BD00BF001002400008014008B530B1D1
:101E2C0029B1012289B200F01DFD012008BD034B30
:101E3C00034A2E210348FEF7A7F900BF042A000825
:101E4C004C2A00082C2A000808B530B129B1002210
:101E5C0089B200F007FD012008BD034B034A342171
:101E6C000348FEF791F900BF042A00083C2A000839
:101E7C002C2A000872B6FEE700B591B0282200218A
:101E8C0006A8FEF7EDF90023019302930393049344
:101E9C000593012206924FF4803307930A92022293
:101EAC000D920E934FF4E0130F9306A800F0D2F8A6
:101EBC0080B90F23019302210291002303934FF465
:101ECC0080620492059301A800F004FB20B911B0C4
:101EDC005DF804FBFFF7CEFFFFF7CCFF08B500F071
:101EEC006BF8FFF7C9FFFFF767FF20210748FFF7E3
:101EFC0095FF4FF47A7000F083F820210020FFF753
:101F0C00A3FF4FF47A7000F07BF8EEE70008014075
:101F1C00FEE7FEE7FEE7FEE7FEE770477047704717
:101F2C0008B500F05BF808BD82B00E4B9A6942F020
:101F3C0001029A619A6902F001020092009ADA6930
:101F4C0042F08052DA61DB6903F080530193019B0C
:101F5C00054A536823F0E06343F00073536002B00A
:101F6C00704700BF001002400000014010B504464D
:101F7C000E4B18784FF47A73B3FBF0F30C4A1068DD
:101F8C00B0FBF3F000F0BEFC68B90F2C01D90120B6
:101F9C000AE0002221464FF0FF3000F07BFC054B9D
:101FAC001C60002000E0012010BD00BF6400002078
:101FBC006C0000206800002008B5074A136843F045
:101FCC0010031360032000F053FC0F20FFF7CEFF2B
:101FDC00FFF7AAFF002008BD00200240034A116849
:101FEC00034B1B780B441360704700BF9C00002010
:101FFC0064000020014B1868704700BF9C00002053
:10200C0038B50446FFF7F6FF0546B4F1FF3F02D0A2
:10201C00044B1B781C44FFF7EDFF401BA042FAD386
:10202C0038BD00BF6400002082B0084B1B68084A12
:10203C00A2FB03235B0A00FB03F3019300BF019B8C
:10204C005A1E0192002BF9D102B070476C0000208F
:10205C00D34D6210002800F0F18170B582B00446B7
:10206C00036813F0010F2CD0994B5B6803F00C0341
:10207C00042B1DD0964B5B6803F00C03082B12D07D
:10208C006368B3F5803F41D0002B55D103F18043F9
:10209C0003F504331A6822F480321A601A6822F4A9
:1020AC0080221A6037E08A4B5B6813F4803FE7D0DC
:1020BC00874B1B6813F4003F03D06368002B00F0C0
:1020CC00BF81236813F0020F75D0814B5B6813F04E
:1020DC000C0F5FD07E4B5B6803F00C03082B54D0C5
:1020EC002369002B00F08A807A4B01221A60FFF7DB
:1020FC0081FF0546764B1B6813F0020F75D1FFF775
:10210C0079FF401B0228F5D903209EE1704A136821
:10211C0043F480331360636843B3FFF76BFF0546EA
:10212C006B4B1B6813F4003FCBD1FFF763FF401BD5
:10213C006428F5D9032088E1B3F5A02F09D0644BAE
:10214C001A6822F480321A601A6822F480221A600B
:10215C00E1E703F18043A3F53C331A6842F4802293
:10216C001A601A6842F480321A60D4E7FFF742FF13
:10217C000546574B1B6813F4003FA2D0FFF73AFFFC
:10218C00401B6428F5D903205FE1514B5B6813F4C5
:10219C00803FA5D14E4B1B6813F0020F03D023696F
:1021AC00012B40F04F814A4A136823F0F803616910
:1021BC0043EAC1031360236813F0080F33D0A369FB
:1021CC00002B5CD0434B0122C3F88024FFF712FF95
:1021DC0005463F4B5B6A13F0020F21D1FFF70AFF54
:1021EC00401B0228F5D903202FE1394A136823F04C
:1021FC00F803616943EAC1031360DCE7354B002245
:10220C001A60FFF7F7FE0546314B1B6813F0020FFF
:10221C00D1D0FFF7EFFE401B0228F5D9032014E1C3
:10222C000120FFF701FF236813F0040F00F09680E4
:10223C00274BDB6913F0805F34D1254BDA6942F010
:10224C008052DA61DB6903F080530193019B012515
:10225C00214B1B6813F4807F26D0E368012B3DD003
:10226C00002B53D103F1804303F504331A6A22F097
:10227C0001021A621A6A22F004021A6233E0154B48
:10228C000022C3F88024FFF7B5FE0546104B5B6AAD
:10229C0013F0020FC7D0FFF7ADFE401B0228F5D993
:1022AC000320D2E00025D3E70B4A136843F4807374
:1022BC001360FFF79FFE0646074B1B6813F4807FE5
:1022CC00CBD1FFF797FE801B6428F5D90320BCE027
:1022DC000010024000004242007000405F4A136A46
:1022EC0043F001031362E36833B3FFF783FE064642
:1022FC005A4B1B6A13F0020F2FD1FFF77BFE801B8A
:10230C0041F288339842F3D903209EE0052B09D083
:10231C00524B1A6A22F001021A621A6A22F0040263
:10232C001A62E0E74D4B1A6A42F004021A621A6A0A
:10233C0042F001021A62D6E7FFF75CFE0646474BF5
:10234C001B6A13F0020F08D0FFF754FE801B41F2FA
:10235C0088339842F3D9032077E0E5B9E369002B81
:10236C0072D03E4A526802F00C02082A56D0022B58
:10237C0017D03B4B00221A66FFF73CFE0446374B46
:10238C001B6813F0007F47D0FFF734FE001B0228B8
:10239C00F5D9032059E0314AD36923F08053D36136
:1023AC00DCE72F4B00221A66FFF724FE05462B4B69
:1023BC001B6813F0007F06D0FFF71CFE401B0228A1
:1023CC00F5D9032041E0236AB3F5803F1AD02349A5
:1023DC004B6823F47413226A606A024313434B6004
:1023EC001F4B01221A66FFF705FE04461B4B1B68A8
:1023FC0013F0007F0ED1FFF7FDFD001B0228F5D96D
:10240C00032022E0154A536823F40033A1680B43E0
:10241C005360DCE7002018E0002016E0012B16D0FA
:10242C000E4B5B6803F48031226A914211D103F4A4
:10243C007013626A93420ED1002006E001207047AF
:10244C00012002E0012000E0002002B070BD01205C
:10245C00FBE70120F9E70120F7E700BF001002407D
:10246C000000424286B0174B0FCB0DF1180C0CE953
:10247C000F0040F20123ADF80430134B5B6803F0FE
:10248C000C02082A02D0114806B07047C3F38342ED
:10249C0018326A4412F8100C13F4803F0DD00A4B1A
:1024AC005B68C3F3404318336B4413F8143C074A7E
:1024BC0002FB00F0B0FBF3F0E6E7054B03FB00F08A
:1024CC00E2E700BF5C2A00080010024000127A000C
:1024DC0000093D00002800F0A08070B50D460446B0
:1024EC00524B1B6803F007038B420BD24F4A136805
:1024FC0023F007030B431360136803F007038B42AD
:10250C0040F08D80236813F0020F17D013F0040FE6
:10251C0004D0474A536843F4E0635360236813F0D4
:10252C00080F04D0424A536843F460535360404A46
:10253C00536823F0F003A1680B435360236813F036
:10254C00010F31D06368012B20D0022B25D0384AE3
:10255C00126812F0020F64D035494A6822F0030267
:10256C0013434B60FFF746FD0646314B5B6803F0A7
:10257C000C036268B3EB820F16D0FFF73BFD801B98
:10258C0041F288339842F0D9032045E0284A12687A
:10259C0012F4003FE0D101203EE0254A126812F00F
:1025AC00007FD9D1012037E0204B1B6803F00703D3
:1025BC00AB420AD91D4A136823F007032B4313605F
:1025CC00136803F00703AB422DD1236813F0040FFB
:1025DC0006D0174A536823F4E063E1680B43536059
:1025EC00236813F0080F07D0114A536823F4605383
:1025FC00216943EAC1035360FFF734FF0C4B5B685E
:10260C00C3F303130B4AD35CD8400B4B18600B4B32
:10261C001868FFF7ABFC002070BD0120704701204B
:10262C00FAE70120F8E70120F6E700BF002002409E
:10263C0000100240702A00086C0000206800002086
:10264C0070B582B00024A446A6E0804DAA4210D0FA
:10265C0007D97F4DAA420CD005F58035AA4208D087
:10266C0013E0A5F58015AA4203D005F57025AA4202
:10267C0007D18A68002A58D0012A51D04361082416
:10268C0003E0A5F58015AA42F3D0BEF1FF0F4ED89A
:10269C000646BEF1FF0F4CD84FEA8C0233680F256B
:1026AC00954023EA050304FA02F2134333604B68A6
:1026BC0013F0805F6ED0674B9A6942F001029A6109
:1026CC009B6903F001030193019B4FEA9C02951C4B
:1026DC00614B53F825600CF003039D000F23AB40B6
:1026EC0026EA03065D4B984229D003F58063984295
:1026FC0000F08E8003F58063984200F08B8003F528
:10270C008063984219D004231AE0CC68BDE7CC68EA
:10271C000434BAE7CC680834B7E7CC680C34B4E7B7
:10272C0003610824B1E70024AFE70424ADE7061DDC
:10273C00AFE7ACF108029200B0E7032300E00023FE
:10274C00AB4033430232444D45F822304B6813F40E
:10275C00803F61D0424A136843EA0E0313604B6812
:10276C0013F4003F5ED03E4A536843EA0E035360B5
:10277C004B6813F4801F5BD0394A936843EA0E030D
:10278C0093604B6813F4001F58D0354AD36843EA62
:10279C000E03D3600CF1010C0A6832FA0CF353D01F
:1027AC00012303FA0CF302EA030E33EA0202F1D11D
:1027BC004A68122A3FF649AF122A3FF666AF01A5C6
:1027CC0055F822F07F26000817270008212700085B
:1027DC00332700089726000897260008972600083C
:1027EC0097260008972600089726000897260008C9
:1027FC0097260008972600089726000897260008B9
:10280C0097260008972600081B2700082727000892
:10281C00012395E7022393E7114A136823EA0E0379
:10282C0013609CE70E4A536823EA0E0353609FE73C
:10283C000B4A936823EA0E039360A2E7084AD36815
:10284C0023EA0E03D360A5E702B070BD000022108E
:10285C00000031100010024000000140000801404F
:10286C00000401400AB1016170470904016170471D
:10287C00074AD36823F4E0631B041B0C000200F42A
:10288C00E060034343F0BF6343F40033D36070470D
:10289C0000ED00E000B5194BDB68C3F30223C3F174
:1028AC00070CBCF1040F28BF4FF0040C03F1040E0D
:1028BC00BEF1060F18D9033B4FF0FF3E0EFA0CFC8D
:1028CC0021EA0C0199400EFA03F322EA030319439F
:1028DC0000280BDB0901C9B200F1604000F5614032
:1028EC0080F800135DF804FB0023E5E700F00F000F
:1028FC000901C9B2024B1954F4E700BF00ED00E026
:10290C0014ED00E00138B0F1807F0BD24FF0E023E2
:10291C005861054AF02182F82310002098610722A3
:10292C001A6170470120704700ED00E0704700000D
:10293C000C480D490D4A002302E0D458C45004330E
:10294C00C4188C42F9D30A4A0A4C002301E01360E4
:10295C000432A242FBD3FFF7E9FFFDF75DFCFFF762
:10296C00BDFA70470000002070000020042B000806
:10297C0070000020A0000020FEE70000F8B500BFAA
:10298C00F8BC08BC9E467047F8B500BFF8BC08BC44
:04299C009E4670479C
:1029A0000400002000000000000000000000000003
:1029B0000000000000000000000000000000000017
:1029C0000000000000000000000000000000000007
:1029D00000000000000000000000000000000000F7
:1029E00000000000000000000000000000000000E7
:1029F00000000000000000000000000000000000D7
:102A0000000000004750494F78203E20424F4F4C75
:102A100056414C5F53452026262050696E78203E53
:102A200020424F4F4C56414C5F534500436F7265F7
:102A30002F5372632F6D61696E2E63006C65645F46
:102A4000657261736570696E000000006C65645F9B
:102A5000777269746570696E0000000002030405F6
:102A6000060708090A0B0C0D0E0F101000000000DD
:102A7000000000000000000001020304060708092E
:102A80002C2066756E6374696F6E3A20000000003A
:102A9000617373657274696F6E20222573222066DC
:102AA00061696C65643A2066696C65202225732231
:102AB0002C206C696E65202564257325730A00003F
:102AC000232D302B20000000686C4C0065666745A4
:102AD00046470000303132333435363738394142D9
:102AE0004344454600000000303132333435363738
:0C2AF00038396162636465660000000014
:042AFC007501000858
:042B00004D0100087B
:102B04000400002000000000E4290008C429000893
:102B1400A4290008000000000000000000000000DC
:102B240000000000000000000000000000000000A1
:102B34000000000000000000000000000000000091
:102B44000000000000000000000000000000000081
:102B54000000000000000000000000000000000071
:102B64000000000001000000100000000024F40038
:040000050800293D89
:00000001FF
