:020000040800F2
:100000000050002021220008391000083B10000891
:100010003D1000083F1000084110000800000000DB
:100020000000000000000000000000004310000875
:1000300045100008000000004710000849100008A3
:100040006922000869220008692200086922000864
:100050006922000869220008692200086922000854
:100060006922000869220008692200086922000844
:100070006922000869220008692200086922000834
:100080006922000869220008692200086922000824
:100090006922000869220008692200086922000814
:1000A0006922000869220008692200086922000804
:1000B000511000086922000869220008692200081E
:1000C00069220008692200086922000869220008E4
:1000D00069220008692200086922000869220008D4
:1000E0006922000869220008692200080000000057
:1000F0000000000000000000000000000000000000
:0C01000000000000000000005FF808F1A3
:10010C000348044B834202D0034B03B1184770479A
:10011C007000002070000020000000000548064917
:10012C000B1AD90F01EBA301491002D0034B03B1F9
:10013C00184770477000002070000020000000007D
:10014C0010B5064C237843B9FFF7DAFF044B13B113
:10015C000448AFF300800123237010BD7000002011
:10016C00000000006C22000808B5044B1BB10449C8
:10017C000448AFF30080BDE80840CFE70000000062
:10018C00740000206C22000870B50D4E0D4D761BCE
:10019C00B61006D0002455F8043B01349847A6420B
:1001AC00F9D1094E094D02F05BF8761BB61006D05A
:1001BC00002455F8043B01349847A642F9D170BD90
:1001CC0038230008382300083C2300083823000893
:1001DC00830730B548D0541E002A3FD00346CAB21C
:1001EC0001E0013C3AD303F8012B9D07F9D1032C14
:1001FC002DD9CDB245EA05250F2C45EA054536D952
:10020C00A4F1100222F00F0C03F1200EE6444FEA89
:10021C00121C03F1100242E9045542E90255103256
:10022C007245F8D10CF1010214F00C0F03EB021221
:10023C0004F00F0C13D0ACF1040323F003030433CC
:10024C00134442F8045B9342FBD10CF003042CB131
:10025C00CAB21C4403F8012B9C42FBD130BD64464E
:10026C001346002CF4D1F9E703461446BFE71A46AF
:10027C00A446E0E770B506460D46002830D08369E9
:10028C0063B384682C4B9C4234D02C4B9C423CD0A6
:10029C002B4B9C4208BFF468A3891B072ED52369FE
:1002AC0063B3297839B932E023685A1C226019707B
:1002BC0015F8011F59B3A368013B002BA360F3DAB7
:1002CC00A269934201DB0A29EED12246304600F0A6
:1002DC0041F80130ECD14FF0FF3070BD00F004FB61
:1002EC00B369B468002BCDD1304600F0FDFA124B47
:1002FC009C42CAD17468A3891B07D0D421463046CE
:10030C0000F08AF80028CCD0E5E7B468C4E7A3680D
:10031C00013B002BA36008DA22460A21304600F08C
:10032C0019F80130D7D00A2070BD0A222368104674
:10033C00591C21601A7070BDC8220008A822000840
:10034C0088220008024B01461868FFF793BF00BFD4
:10035C0000000020F8B506460D46144608B1836926
:10036C0043B3254B9C422AD0244B9C4229D0244B8E
:10037C009C4208BFF468A269A389A2601A0722D51F
:10038C00236903B322686169D31AEDB299422F46EF
:10039C0029DD0133A1680139A160511C2160157060
:1003AC0062699A4216D0A389DB0701D50A2D11D0B8
:1003BC003846F8BD00F098FA0F4B9C42D4D17468C3
:1003CC00D9E7B468D7E72146304600F025F838B9AC
:1003DC002369D7E72146304600F024F90028E7D0FE
:1003EC004FF0FF37E4E72146304600F01BF90028B8
:1003FC00F6D101232268CDE7C8220008A822000804
:10040C008822000803460A46024908681946FFF785
:10041C00A1BF00BF000000203C4B70B51D68064614
:10042C000C460DB1AB69E3B1394B9C421FD0394B33
:10043C009C424DD0384B9C4208BFEC68B4F90C3050
:10044C0018079AB219D5216911B312F001002FD0F7
:10045C0000256069A5604042A06100292ED00020D3
:10046C0070BD284600F040FA294B9C42DFD16C68E5
:10047C00B4F90C3018079AB2E5D4D1063ED5520720
:10048C0028D4216943F00803A3819AB20029DCD156
:10049C0002F42070B0F5007FD7D02146304600F032
:1004AC0087FAB4F90C3021699AB212F00100CFD15D
:1004BC00950758BF6069A0600029D0D1120658BFBB
:1004CC000846CDD543F040034FF0FF30A38170BDFB
:1004DC00AC68B3E7616B51B104F14402914204D0B2
:1004EC00304600F0F3FAB4F90C30002262630022BB
:1004FC00216923F02403C4E90012C3E7092243F065
:10050C00400332604FF0FF30A38170BD000000202B
:10051C00C8220008A822000888220008F8B58B8998
:10052C000C46190707463BD46268002A55DDE66A7B
:10053C00002E50D000223D683A6013F4805250D106
:10054C0001233846216AB047421C5CD0A389E66A75
:10055C005B0705D56368C01A636B0BB1236CC01ABB
:10056C000246216A00233846B047411C3BD13B6808
:10057C00002B38D01D2B01D0162B4BD10023226918
:10058C00C4E90023616B3D6029B304F14403994233
:10059C0002D0384600F09AFA002318466363F8BD7F
:1005AC002669C6B19A0718BF0023256808BF63697E
:1005BC002660AD1BA3600CE02B463246D4F828C055
:1005CC003846216AE047B0F1000CA5EB0C056644F7
:1005DC0012DD002DF0DC0020F8BD226C002AA6DC18
:1005EC00F9E7606DB4E70022236962602360A38998
:1005FC00DB04C7D56065C5E7A3894FF0FF3043F036
:10060C004003A381F8BD3B68002B9FD01D2B06D067
:10061C00162B04D0A38943F04003A381F8BD00201E
:10062C003D60F8BD38B50B69BBB10C46054608B149
:10063C008369B3B10D4B9C4211D00D4B9C4213D02E
:10064C000C4B9C4208BFEC68B4F90C302BB1214622
:10065C002846BDE83840FFF761BF002038BD6C6804
:10066C00F2E700F041F9E5E7AC68EDE7C8220008D5
:10067C00A82200088822000838B540B30369044654
:10068C00E3B1174B1D680DB1AB69CBB1154B9C4257
:10069C000FD0154B9C4221D0144B9C4208BFEC68E8
:1006AC00B4F90C3053B121462846BDE83840FFF769
:1006BC0035BF6C68B4F90C30002BF4D1002038BD78
:1006CC00284600F011F9074B9C42E2D1F1E7084BA8
:1006DC0008491868BDE8384000F046B9AC68DFE757
:1006EC0000000020C8220008A82200088822000868
:1006FC00842200083106000800207047014900F0F0
:10070C0033B900BF3106000800207047682270B56D
:10071C004D1E02FB05F50E4605F1740100F03CFA86
:10072C00044640B100210C30C4E9016005F16802B7
:10073C002160FFF74DFD204670BD00BF274B2DE912
:10074C00F0411E680746B36953B34FF004084836AE
:10075C00D6E90134013B04D51EE05A1C04F16804AF
:10076C001AD0B4F90C50013B002DF6D11C4B0822C9
:10077C002946C4E90055C4E90253C4E90455656629
:10078C00A56104F15C00FFF723FDC4E90D55C4E934
:10079C0012552046BDE8F08135682DB12E46D7E7BD
:1007AC00304600F01FF8D0E74FF4D671384600F011
:1007BC00F3F9044668B1056029460546C0F8048083
:1007CC000C304FF4D072A060FFF702FD34602E465F
:1007DC00BEE70C2330603B60DBE700BF84220008DF
:1007EC000100FFFF0023334A2DE9F0471268C0E9EE
:1007FC0012339042036508BF01232F4908BF836160
:10080C0081620546FFF79AFF034628466B60FFF7A7
:10081C0095FFA86028460024FFF790FF04236E681C
:10082C00DFF898A0DFF89890DFF89880264FE86002
:10083C000822F3602146C6E90044C6E90444746604
:10084C00B460B46106F15C00FFF7C2FC1F4BC6E953
:10085C00086AC6E90A983763AE680822F360214635
:10086C00C6E90044C6E904447466B460B46106F198
:10087C005C00FFF7ADFC164BC6E9086AC6E90A989E
:10088C003763EE682146F3600822C6E90044C6E9E6
:10089C0004447466B460B46106F15C00FFF798FC24
:1008AC000123C6E9086AC6E90B87C6F82890AB6134
:1008BC00BDE8F0878422000809070008810C0008B5
:1008CC00A90C0008E90C0008090D0008090001003A
:1008DC0012000200024B0349186800F045B800BF33
:1008EC008422000831060008836903B97AE770474F
:1008FC00704700BF704700BF704700BF704700BF14
:10090C00024B0349186800F00FB800BF000000202C
:10091C0005070008024B0349186800F005B800BF32
:10092C0000000020150700082DE9F041002688463C
:10093C0000F14807D7E90154013D0ED4A389013DCC
:10094C00012B06D9B4F90E30013302D02046C04732
:10095C0006436B1C04F16804F0D13F68002FE9D109
:10096C003046BDE8F08100BF2DE9F8434FF0000997
:10097C000746884600F14806D6E90154013D10D4DB
:10098C00A389013D012B08D9B4F90E30013304D0F1
:10099C0021463846C04749EA00096B1C04F168043B
:1009AC00EED13668002EE7D14846BDE8F88300BF8B
:1009BC00F0B58B890C46990797B007D5012204F145
:1009CC004703C4E90432236017B0F0BDB4F90E102C
:1009DC00054600292DDB6A4600F0BCF9002827DB10
:1009EC00019E4FF4806706F47046A6F50056B6FAE1
:1009FC0086F639462846760900F0CEF830B3A3893E
:100A0C001A4A43F08003AA62C4E90407A381206058
:100A1C00002ED9D02846B4F90E1000F0AFF90028FA
:100A2C00D2D0A38923F0030343F00103A381CBE7C6
:100A3C00A38913F0800F14BF40274FF4806728461A
:100A4C003946002600F0A8F80028D8D1B4F90C30AB
:100A5C009A05B9D4012123F0030304F1470243F0B2
:100A6C000203C4E90421A3812260ADE70907000851
:100A7C0070B50C46B1F90E10164600291D4696B0FD
:100A8C0013DB6A4600F066F900280EDB01994FF47F
:100A9C00806301F47041A1F50051B1FA81F100209D
:100AAC0049092960336016B070BD0022B4F90C30CE
:100ABC002A601B0604D540230020336016B070BD9D
:100ACC004FF480630020336016B070BD002952D003
:100ADC0038B551F8043C0C1F002BB8BFE418054680
:100AEC0000F074F92B4A1368002B45D0A3420CD9A3
:100AFC0021686018834228D0636028461460BDE8E2
:100B0C00384000F065B9A3420FD81A465B68002B39
:100B1C00F9D11168501884421DD034D363605460ED
:100B2C002846BDE8384000F053B911685018A0426F
:100B3C0015D028D8216860188342EFD118685B68FB
:100B4C000144C4E900135460EAE718685B68014487
:100B5C00C4E90013D1E7236819441160E0E7206869
:100B6C000144501883421160DAD1D3E900030144E7
:100B7C00C2E90013D4E77047284663601460BDE8EF
:100B8C00384000F025B90C2328462B60BDE83840CE
:100B9C0000F01EB98C000020F8B5CD1C25F0030523
:100BAC0008350C2D38BF0C25002D064623DBA94239
:100BBC0021D8264F00F00AF93A6822B3144603E014
:100BCC0063682246FBB11C4623685B1BF8D40B2BD5
:100BDC0015D8636894420CBF3B605360304600F0FC
:100BEC00F7F804F10B00231D20F00700C21A01D006
:100BFC001B1AA350F8BD0C2300203360F8BD2360F2
:100C0C001C442560EAE77968D1B12946304600F0EA
:100C1C001FF8431C01460CD0C41C24F00304A04252
:100C2C0005D03046611A00F013F8013001D0256070
:100C3C00D4E70C233046336000F0CAF80020F8BD2E
:100C4C00304600F005F87860DFE700BF8C0000202C
:100C5C00002238B5064D044608462A6000F0F8F824
:100C6C00431C00D038BD2B68002BFBD0236038BD53
:100C7C009400002010B50C46B1F90E1000F0AAF843
:100C8C00002803DB636D0344636510BDA38923F463
:100C9C008053A38110BD00BF002070472DE9F041A7
:100CAC000C46B1F90C101F46CB05054616460BD465
:100CBC0021F48051A1813B4632462846B4F90E10EE
:100CCC00BDE8F04100F01EB8B4F90E10022300226A
:100CDC0000F066F8B4F90C10EAE700BF10B50C464A
:100CEC00B1F90E1000F05CF8A389421C0EBF23F47E
:100CFC00805343F480536065A38110BDB1F90E108D
:100D0C0000F016B838B50C46114600228446074D43
:100D1C0020462A601A46644600F0DAF8431C00D0DC
:100D2C0038BD2B68002BFBD0236038BD940000200D
:100D3C00002238B5064D044608462A6000F060F8DB
:100D4C00431C00D038BD2B68002BFBD0236038BD72
:100D5C009400002070B50026074D04460846114645
:100D6C002E6000F055F8431C00D070BD2B68002B92
:100D7C00FBD0236070BD00BF94000020002238B56A
:100D8C00064D044608462A6000F04AF8431C00D081
:100D9C0038BD2B68002BFBD0236038BD940000209D
:100DAC0038B50C46114600228446074D20462A6071
:100DBC001A46644600F03CF8431C00D038BD2B6842
:100DCC00002BFBD0236038BD94000020704700BF7F
:100DDC00704700BF38B50C46114600228446074DBB
:100DEC0020462A601A46644600F02AF8431C00D0BC
:100DFC0038BD2B68002BFBD0236038BD940000203D
:100E0C005822024B4FF0FF301A60704794000020BC
:100E1C005822024B4FF0FF301A60704794000020AC
:100E2C005822024B00201A60704700BF940000202B
:100E3C005822024B4FF0FF301A607047940000208C
:100E4C005822024B4FF0FF301A607047940000207C
:100E5C00044A05491368002B08BF0B461844106060
:100E6C0018467047980000203001002030B587B03C
:100E7C0000240294039404940594134B9A6942F051
:100E8C0020029A619A6902F020020092009A9A69F3
:100E9C0042F004029A619B6903F004030193019BE5
:100EAC000A4D22466021284601F01AF8602302936D
:100EBC000123039304940223059302A9284600F00E
:100ECC00FDFE07B030BD00BF00100240000801401D
:100EDC0010B51446642392B2024801F02EF9204654
:100EEC0010BD00BFE400002008B52021014800F02F
:100EFC00FDFF08BD0008014072B6FEE700B587B0E3
:100F0C0000230293039304930593009301931548D4
:100F1C004FF0804202604FF47A72426083604FF46B
:100F2C00E152C26003618023836100F06DFA90B9D5
:100F3C004FF48053029302A90A4800F09DFA60B95D
:100F4C000023009301936946064800F003FB30B977
:100F5C0007B05DF804FBFFF7CFFFFFF7CDFFFFF7FE
:100F6C00CBFF00BF9C00002008B50A480A4B036069
:100F7C004FF4E133436000238360C36003610C22B0
:100F8C0042618361C36101F0A9F800B908BDFFF7A4
:100F9C00B3FF00BFE40000200038014000B591B061
:100FAC002822002106A8FFF713F9002301930293CE
:100FBC00039304930593012206924FF48033079315
:100FCC000A9202220D920E934FF4E0130F9306A88F
:100FDC0000F058FB80B90F230193022102910023EA
:100FEC0003934FF480620492059301A800F08AFDEC
:100FFC0020B911B05DF804FBFFF77EFFFFF77CFF13
:10100C0008B500F005FBFFF7C9FFFFF72FFFFFF74F
:10101C0075FFFFF7A9FF034800F0C6F80248FFF779
:10102C0091F9FEE79C000020E8220008FEE7FEE7AD
:10103C00FEE7FEE7FEE770477047704708B500F023
:10104C00F9FA08BD08B5024800F0E6F808BD00BF83
:10105C009C00002082B00E4B9A6942F001029A610A
:10106C009A6902F001020092009ADA6942F0805209
:10107C00DA61DB6903F080530193019B054A5368E5
:10108C0023F0E06343F00073536002B0704700BF7D
:10109C0000100240000001400368B3F1804F00D003
:1010AC00704700B583B003F50433DA6942F00102EE
:1010BC00DA61DB6903F001030193019B0022114605
:1010CC001C2000F02FFF1C2000F064FF03B05DF823
:1010DC0004FB000010B586B0002302930393049325
:1010EC0005930268174B9A4201D006B010BD03F568
:1010FC0058439A6942F480429A619A6902F4804298
:10110C000092009A9A6942F004029A619B6903F07A
:10111C0004030193019B4FF4007302930223039386
:10112C0003230593084C02A9204600F0C7FD4FF499
:10113C008063029300230393049302A9204600F0DA
:10114C00BDFDD2E7003801400008014010B4036A2D
:10115C00046A24F001040462846924F0F00C4CEA63
:10116C00021223F00A030B438261036210BC704726
:10117C0010B4046A24F0100404628469036A24F431
:10118C00704C4CEA023223F0A00343EA0113826153
:10119C00036210BC7047836823F070030B4343F069
:1011AC00070383607047000090F83D30DBB2012BE1
:1011BC0027D1022380F83D300268D36843F0010345
:1011CC00D3600368114A934210D0B3F1804F0DD015
:1011DC00A2F59432934209D002F58062934205D075
:1011EC001A6842F001021A60002070479A6802F0F7
:1011FC000702062A07D01A6842F001021A60002082
:10120C007047012070470020704700BF002C014040
:10121C00704770477047704710B5044603681A69E9
:10122C0012F0020F11D0DA6812F0020F0DD06FF02D
:10123C0002021A610123037703689B6913F0030F01
:10124C0070D0FFF7E6FF0023237723681A6912F0AA
:10125C00040F12D0DA6812F0040F0ED06FF00402F3
:10126C001A610223237723689B6913F4407F5FD0B4
:10127C002046FFF7CEFF0023237723681A6912F06C
:10128C00080F12D0DA6812F0080F0ED06FF00802B7
:10129C001A61042323772368DB6913F0030F4ED004
:1012AC002046FFF7B6FF0023237723681A6912F054
:1012BC00100F12D0DA6812F0100F0ED06FF010026F
:1012CC001A61082323772368DB6913F4407F3DD030
:1012DC002046FFF79EFF0023237723681A6912F03C
:1012EC00010F03D0DA6812F0010F36D123681A69A6
:1012FC0012F0800F03D0DA6812F0800F34D123681B
:10130C001A6912F0400F03D0DA6812F0400F32D194
:10131C0023681A6912F0200F03D0DA6812F0200F3C
:10132C0030D110BDFFF774FF2046FFF773FF8AE73B
:10133C002046FFF76DFF2046FFF76CFF9BE720462A
:10134C00FFF766FF2046FFF765FFACE72046FFF787
:10135C005FFF2046FFF75EFFBDE76FF001021A61E9
:10136C002046FFF7C1FDC1E76FF080021A612046ED
:10137C0000F027F9C3E76FF040021A612046FFF72F
:10138C004AFFC5E76FF020021A61204600F018F9F9
:10139C00C7E7000003681B4A90420AD0B0F1804FA7
:1013AC0007D0A2F59432904203D002F580629042AD
:1013BC0003D123F070034A681343124A90420AD0B7
:1013CC00B0F1804F07D0A2F59432904203D002F5D1
:1013DC008062904203D123F44073CA68134323F014
:1013EC0080034A69134303608B68C3620B68836292
:1013FC00044B984202D00123436170470B6903638D
:10140C00F9E700BF002C014040B310B5044690F83A
:10141C003D30F3B1022384F83D30214651F8040BE2
:10142C00FFF7B8FF012384F8463084F83E3084F887
:10143C003F3084F8403084F8413084F8423084F8EE
:10144C00433084F8443084F8453084F83D30002033
:10145C0010BD80F83C30FFF71FFEDBE70120704722
:10146C0010B4846824F47F4C42EA03220A4342EA13
:10147C000C02826010BC704790F83C30012B66D097
:10148C0010B50446012380F83C30022380F83D302F
:10149C000268936823F47F4323F0770393600B680F
:1014AC00602B40D022D8402B47D00BD9502B0ED1DB
:1014BC00CA6849680068FFF749FE50212068FFF7A9
:1014CC006AFE04E0202B0CD008D9302B09D0012364
:1014DC0084F83D30002084F83C0010BD0BB1102B7B
:1014EC00F5D119462068FFF756FEF0E7702B0ED0A9
:1014FC00B3F5005FEBD1CB684A6889680068FFF7E9
:10150C00AFFF2268936843F480439360DFE7CB68B6
:10151C004A6889680068FFF7A3FF2268936843F064
:10152C0077039360D3E7CA6849680068FFF720FE29
:10153C0060212068FFF72FFEC9E7CA684968006878
:10154C00FFF704FE40212068FFF725FEBFE70220CD
:10155C007047000090F83C30012B2CD010B40123C4
:10156C0080F83C30022380F83D3003685A689C6850
:10157C0022F0700C0A6842EA0C025A6003680F4AA7
:10158C0093420AD0B3F1804F07D0A2F59432934224
:10159C0003D002F58062934204D124F080044A689F
:1015AC0014439C60012380F83D30002380F83C30CC
:1015BC00184610BC70470220704700BF002C014039
:1015CC007047704710B504460E4B18784FF47A7379
:1015DC00B3FBF0F30C4A1068B0FBF3F000F0E8FC3E
:1015EC0068B90F2C01D901200AE0002221464FF0E6
:1015FC00FF3000F097FC054B1C60002000E0012040
:10160C0010BD00BF640000206C00002068000020AA
:10161C0008B5074A136843F010031360032000F069
:10162C006FFC0F20FFF7CEFFFFF714FD002008BD65
:10163C0000200240034A1168034B1B780B441360D3
:10164C00704700BF2801002064000020014B18687F
:10165C00704700BF2801002082B0084B1B68084A65
:10166C00A2FB03235B0A00FB03F3019300BF019B66
:10167C005A1E0192002BF9D102B070476C00002069
:10168C00D34D6210002800F0F18170B582B0044691
:10169C00036813F0010F2CD0994B5B6803F00C031B
:1016AC00042B1DD0964B5B6803F00C03082B12D057
:1016BC006368B3F5803F41D0002B55D103F18043D3
:1016CC0003F504331A6822F480321A601A6822F483
:1016DC0080221A6037E08A4B5B6813F4803FE7D0B6
:1016EC00874B1B6813F4003F03D06368002B00F09A
:1016FC00BF81236813F0020F75D0814B5B6813F028
:10170C000C0F5FD07E4B5B6803F00C03082B54D09E
:10171C002369002B00F08A807A4B01221A60FFF7B4
:10172C0095FF0546764B1B6813F0020F75D1FFF73A
:10173C008DFF401B0228F5D903209EE1704A1368E7
:10174C0043F480331360636843B3FFF77FFF0546B0
:10175C006B4B1B6813F4003FCBD1FFF777FF401B9B
:10176C006428F5D9032088E1B3F5A02F09D0644B88
:10177C001A6822F480321A601A6822F480221A60E5
:10178C00E1E703F18043A3F53C331A6842F480226D
:10179C001A601A6842F480321A60D4E7FFF756FFD9
:1017AC000546574B1B6813F4003FA2D0FFF74EFFC2
:1017BC00401B6428F5D903205FE1514B5B6813F49F
:1017CC00803FA5D14E4B1B6813F0020F03D0236949
:1017DC00012B40F04F814A4A136823F0F8036169EA
:1017EC0043EAC1031360236813F0080F33D0A369D5
:1017FC00002B5CD0434B0122C3F88024FFF726FF5B
:10180C0005463F4B5B6A13F0020F21D1FFF71EFF19
:10181C00401B0228F5D903202FE1394A136823F025
:10182C00F803616943EAC1031360DCE7354B00221E
:10183C001A60FFF70BFF0546314B1B6813F0020FC4
:10184C00D1D0FFF703FF401B0228F5D9032014E188
:10185C000120FFF701FF236813F0040F00F09680BE
:10186C00274BDB6913F0805F34D1254BDA6942F0EA
:10187C008052DA61DB6903F080530193019B0125EF
:10188C00214B1B6813F4807F26D0E368012B3DD0DD
:10189C00002B53D103F1804303F504331A6A22F071
:1018AC0001021A621A6A22F004021A6233E0154B22
:1018BC000022C3F88024FFF7C9FE0546104B5B6A73
:1018CC0013F0020FC7D0FFF7C1FE401B0228F5D959
:1018DC000320D2E00025D3E70B4A136843F480734E
:1018EC001360FFF7B3FE0646074B1B6813F4807FAB
:1018FC00CBD1FFF7ABFE801B6428F5D90320BCE0ED
:10190C000010024000004242007000405F4A136A1F
:10191C0043F001031362E36833B3FFF797FE064607
:10192C005A4B1B6A13F0020F2FD1FFF78FFE801B4F
:10193C0041F288339842F3D903209EE0052B09D05D
:10194C00524B1A6A22F001021A621A6A22F004023D
:10195C001A62E0E74D4B1A6A42F004021A621A6AE4
:10196C0042F001021A62D6E7FFF770FE0646474BBB
:10197C001B6A13F0020F08D0FFF768FE801B41F2C0
:10198C0088339842F3D9032077E0E5B9E369002B5B
:10199C0072D03E4A526802F00C02082A56D0022B32
:1019AC0017D03B4B00221A66FFF750FE0446374B0C
:1019BC001B6813F0007F47D0FFF748FE001B02287E
:1019CC00F5D9032059E0314AD36923F08053D36110
:1019DC00DCE72F4B00221A66FFF738FE05462B4B2F
:1019EC001B6813F0007F06D0FFF730FE401B022867
:1019FC00F5D9032041E0236AB3F5803F1AD023497F
:101A0C004B6823F47413226A606A024313434B60DD
:101A1C001F4B01221A66FFF719FE04461B4B1B686D
:101A2C0013F0007F0ED1FFF711FE001B0228F5D931
:101A3C00032022E0154A536823F40033A1680B43BA
:101A4C005360DCE7002018E0002016E0012B16D0D4
:101A5C000E4B5B6803F48031226A914211D103F47E
:101A6C007013626A93420ED1002006E00120704789
:101A7C00012002E0012000E0002002B070BD012036
:101A8C00FBE70120F9E70120F7E700BF0010024057
:101A9C000000424286B0174B0FCB0DF1180C0CE92D
:101AAC000F0040F20123ADF80430134B5B6803F0D8
:101ABC000C02082A02D0114806B07047C3F38342C7
:101ACC0018326A4412F8100C13F4803F0DD00A4BF4
:101ADC005B68C3F3404318336B4413F8143C074A58
:101AEC0002FB00F0B0FBF3F0E6E7054B03FB00F064
:101AFC00E2E700BF0C2300080010024000127A003D
:101B0C0000093D00002800F0A08070B50D46044689
:101B1C00524B1B6803F007038B420BD24F4A1368DE
:101B2C0023F007030B431360136803F007038B4286
:101B3C0040F08D80236813F0020F17D013F0040FC0
:101B4C0004D0474A536843F4E0635360236813F0AE
:101B5C00080F04D0424A536843F460535360404A20
:101B6C00536823F0F003A1680B435360236813F010
:101B7C00010F31D06368012B20D0022B25D0384ABD
:101B8C00126812F0020F64D035494A6822F0030241
:101B9C0013434B60FFF75AFD0646314B5B6803F06D
:101BAC000C036268B3EB820F16D0FFF74FFD801B5E
:101BBC0041F288339842F0D9032045E0284A126854
:101BCC0012F4003FE0D101203EE0254A126812F0E9
:101BDC00007FD9D1012037E0204B1B6803F00703AD
:101BEC00AB420AD91D4A136823F007032B43136039
:101BFC00136803F00703AB422DD1236813F0040FD5
:101C0C0006D0174A536823F4E063E1680B43536032
:101C1C00236813F0080F07D0114A536823F460535C
:101C2C00216943EAC1035360FFF734FF0C4B5B6837
:101C3C00C3F303130B4AD35CD8400B4B18600B4B0C
:101C4C001868FFF7BFFC002070BD01207047012011
:101C5C00FAE70120F8E70120F6E700BF0020024078
:101C6C0000100240202300086C00002068000020B7
:101C7C00014B1868704700BF6C00002008B5FFF7D7
:101C8C00F7FF044B5B68C3F30223034AD35CD840D1
:101C9C0008BD00BF001002403023000808B5FFF754
:101CAC00E7FF044B5B68C3F3C223034AD35CD84001
:101CBC0008BD00BF001002403023000870B582B090
:101CCC000024A446A6E0804DAA4210D007D97F4D2F
:101CDC00AA420CD005F58035AA4208D013E0A5F530
:101CEC008015AA4203D005F57025AA4207D18A684F
:101CFC00002A58D0012A51D04361082403E0A5F5ED
:101D0C008015AA42F3D0BEF1FF0F4ED80646BEF1A5
:101D1C00FF0F4CD84FEA8C0233680F25954023EA0D
:101D2C00050304FA02F2134333604B6813F0805F2F
:101D3C006ED0674B9A6942F001029A619B6903F07D
:101D4C0001030193019B4FEA9C02951C614B53F8D4
:101D5C0025600CF003039D000F23AB4026EA03061D
:101D6C005D4B984229D003F58063984200F08E8039
:101D7C0003F58063984200F08B8003F580639842F2
:101D8C0019D004231AE0CC68BDE7CC680434BAE758
:101D9C00CC680834B7E7CC680C34B4E7036108248A
:101DAC00B1E70024AFE70424ADE7061DAFE7ACF1C3
:101DBC0008029200B0E7032300E00023AB4033435A
:101DCC000232444D45F822304B6813F4803F61D009
:101DDC00424A136843EA0E0313604B6813F4003F46
:101DEC005ED03E4A536843EA0E0353604B6813F4CB
:101DFC00801F5BD0394A936843EA0E0393604B68AB
:101E0C0013F4001F58D0354AD36843EA0E03D3604D
:101E1C000CF1010C0A6832FA0CF353D0012303FACB
:101E2C000CF302EA030E33EA0202F1D14A68122AD9
:101E3C003FF649AF122A3FF666AF01A555F822F0DE
:101E4C00FB1C0008931D00089D1D0008AF1D000819
:101E5C00131D0008131D0008131D0008131D000896
:101E6C00131D0008131D0008131D0008131D000886
:101E7C00131D0008131D0008131D0008131D000876
:101E8C00131D0008971D0008A31D0008012395E7EA
:101E9C00022393E7114A136823EA0E0313609CE7AD
:101EAC000E4A536823EA0E0353609FE70B4A93686C
:101EBC0023EA0E039360A2E7084AD36823EA0E03D1
:101ECC00D360A5E702B070BD0000221000003110F5
:101EDC0000100240000001400008014000040140D5
:101EEC000AB101617047090401617047C36801EAD6
:101EFC00030221EA030141EA02410161704700003B
:101F0C00074AD36823F4E0631B041B0C000200F4A3
:101F1C00E060034343F0BF6343F40033D360704786
:101F2C0000ED00E000B5194BDB68C3F30223C3F1ED
:101F3C00070CBCF1040F28BF4FF0040C03F1040E86
:101F4C00BEF1060F18D9033B4FF0FF3E0EFA0CFC06
:101F5C0021EA0C0199400EFA03F322EA0303194318
:101F6C0000280BDB0901C9B200F1604000F56140AB
:101F7C0080F800135DF804FB0023E5E700F00F0088
:101F8C000901C9B2024B1954F4E700BF00ED00E09F
:101F9C0014ED00E0002807DB00F01F0240090123CC
:101FAC009340024A42F82030704700BF00E100E045
:101FBC000138B0F1807F0BD24FF0E0235861054A15
:101FCC00F02182F823100020986107221A617047D3
:101FDC000120704700ED00E07047000010B504468A
:101FEC000268136923F44053C1680B43136183687F
:101FFC000269134342691A430168CB6823F4B05356
:10200C0023F00C031343CB600268536923F4407331
:10201C0081690B4353610268134B9A4220D0FFF73E
:10202C002DFE024602EB820202EB820263689B00E9
:10203C00B2FBF3F20D48A0FB02314909642303FB08
:10204C0011231B013233A0FB03235B0903F0F002C5
:10205C0002EB011203F00F03216813448B6010BDD7
:10206C00FFF71CFE0246DDE7003801401F85EB51EF
:10207C002DE9F84305460F4616469946DDF82080B3
:10208C002C68246837EA04030CBF4FF0010C4FF0A6
:10209C00000CB4451FD1B8F1FF3FF1D0B8F1000FDF
:1020AC0005D0FFF7D3FAA0EB09004045E8D92A6820
:1020BC00D36823F4D073D3602A68536923F00103E7
:1020CC005361202385F83D3085F83E30002385F898
:1020DC003C30032000E00020BDE8F88358B310B575
:1020EC00044690F83D300BB3242384F83D3022682D
:1020FC00D36823F40053D3602046FFF76FFF2268A8
:10210C00136923F4904313612268536923F02A0363
:10211C0053612268D36843F40053D36000202064D9
:10212C00202384F83D3084F83E3010BD80F83C30DC
:10213C00FEF7D0FFD8E7012070472DE9F04182B0BF
:10214C001E4690F83D30DBB2202B54D104460D4690
:10215C009046002953D0002A53D090F83C30012BE4
:10216C0051D0012380F83C3000230364212380F8F4
:10217C003D30FFF76BFA0746A4F82480A4F82680BC
:10218C00A368B3F5805F05D04FF00008002384F8F6
:10219C003C3012E0236913B14FF00008F6E7A84673
:1021AC000025F3E738F8023B2268C3F308035360B9
:1021BC00E28C92B2013A92B2E284E38C9BB273B19C
:1021CC0000963B46002280212046FFF751FFE0B9E4
:1021DC00002DE7D015F8012B23685A60E8E700962C
:1021EC003B46002240212046FFF742FF78B92023CE
:1021FC0084F83D3000E0022002B0BDE8F0810120FF
:10220C00FAE70120F8E70220F6E70320F4E70320C1
:10221C00F2E700000C480D490D4A002302E0D458A7
:10222C00C4500433C4188C42F9D30A4A0A4C002314
:10223C0001E013600432A242FBD3FFF7CDFEFDF7A1
:10224C00A3FFFEF7DDFE70470000002070000020A9
:10225C0040230008700000202C010020FEE7000045
:10226C00F8B500BFF8BC08BC9E467047F8B500BF77
:08227C00F8BC08BC9E46704747
:102284000400002000000000000000000000000026
:10229400000000000000000000000000000000003A
:1022A400000000000000000000000000000000002A
:1022B400000000000000000000000000000000001A
:1022C400000000000000000000000000000000000A
:1022D40000000000000000000000000000000000FA
:1022E400000000002D2D3E2043442E783A20496EF4
:1022F400697469616C697A696E672066756E637466
:10230400696F6E210D000000020304050607080929
:102314000A0B0C0D0E0F101000000000000000004E
:102324000000000001020304060708090000000081
:04233400010203049B
:042338007501000823
:04233C004D01000847
:102340000400002000000000C8220008A8220008A5
:1023500088220008000000000000000000000000CB
:10236000000000000000000000000000000000006D
:10237000000000000000000000000000000000005D
:10238000000000000000000000000000000000004D
:10239000000000000000000000000000000000003D
:1023A0000000000001000000100000000024F40004
:0400000508002221AC
:00000001FF
